:100000000C945D000C9485000C9485000C94850084
:100010000C9485000C9485000C9485000C9485004C
:100020000C9485000C9485000C9485000C9485003C
:100030000C9485000C9485000C9485000C9485002C
:100040000C949E030C9485000C946C030C94460352
:100050000C9485000C9485000C9485000C9485000C
:100060000C9485000C94850000000008000201003B
:100070000003040700000000000000000000000072
:10008000250028002B0000000000240027002A0083
:10009000040404040404040402020202020203032E
:1000A0000303030301020408102040800102040836
:1000B00010200102040810206D0511241FBECFEF8F
:1000C000D8E0DEBFCDBF11E0A0E0B1E0E4EAFCE0A3
:1000D00002C005900D92A631B107D9F721E0A6E143
:1000E000B1E001C01D92A63CB207E1F710E0CDE5FA
:1000F000D0E004C02197FE010E943606CC35D1071E
:10010000C9F70E94E8030C9450060C94000090E09C
:10011000FC01EC55FF4F249180579F4FFC018491C7
:10012000882399F090E0880F991FFC01EA57FF4F50
:10013000A591B491FC01E458FF4F859194918FB73C
:10014000F894EC91E22BEC938FBF0895AF92BF929D
:10015000CF92DF92EF92FF920F931F93CF93DF9393
:100160006C017B018B01040F151FEB015E01AE18C2
:10017000BF08C017D10759F06991D601ED91FC91E4
:100180000190F081E02DC6010995892B79F7C50111
:10019000DF91CF911F910F91FF90EF90DF90CF9063
:1001A000BF90AF900895FC01538D448D252F30E012
:1001B000842F90E0821B930B541710F0CF96089574
:1001C00001970895FC01918D828D981761F0A28DA1
:1001D000AE0FBF2FB11D5D968C91928D9F5F9F7367
:1001E000928F90E008958FEF9FEF0895FC01918D1D
:1001F000828D981731F0828DE80FF11D858D90E08A
:1002000008958FEF9FEF0895FC01918D228D892F26
:1002100090E0805C9F4F821B91098F73992708950E
:1002200089E291E00E94040121E0892B09F420E099
:10023000822F089580E090E0892B29F00E94100120
:1002400081110C9400000895FC01A48DA80FB92F12
:10025000B11DA35ABF4F2C91848D90E001968F73EE
:100260009927848FA689B7892C93A089B1898C910D
:10027000837080648C93938D848D981306C002885C
:10028000F389E02D80818F7D80830895EF92FF9226
:100290000F931F93CF93DF93EC0181E0888F9B8DA9
:1002A0008C8D98131AC0E889F989808185FF15C063
:1002B0009FB7F894EE89FF896083E889F989808186
:1002C0008370806480839FBF81E090E0DF91CF9155
:1002D0001F910F91FF90EF900895F62E0B8D10E077
:1002E0000F5F1F4F0F731127E02E8C8D8E110CC0E6
:1002F0000FB607FCFACFE889F989808185FFF5CF31
:10030000CE010E942401F1CFEB8DEC0FFD2FF11DEA
:10031000E35AFF4FF0829FB7F8940B8FEA89FB896D
:1003200080818062CFCFCF93DF93EC01888D8823CB
:10033000B9F0AA89BB89E889F9898C9185FD03C048
:10034000808186FD0DC00FB607FCF7CF8C9185FF2D
:10035000F2CF808185FFEDCFCE010E942401E9CF4D
:10036000DF91CF91089590E0FC01E859FF4F24916F
:10037000FC01EC55FF4F3491FC01E057FF4FE49135
:10038000EE23C9F0222339F0233001F1A8F4213003
:1003900019F1223029F1F0E0EE0FFF1FE458FF4F72
:1003A000A591B4918FB7F894EC91611126C0309566
:1003B0003E233C938FBF08952730A9F02830C9F021
:1003C000243049F7809180008F7D03C080918000A8
:1003D0008F7780938000DFCF84B58F7784BDDBCFAC
:1003E00084B58F7DFBCF8091B0008F778093B00074
:1003F000D2CF8091B0008F7DF9CF3E2BDACF3FB7BF
:10040000F8948091170190911801A0911901B09171
:100410001A0126B5A89B05C02F3F19F00196A11D12
:10042000B11D3FBFBA2FA92F982F8827BC01CD013E
:10043000620F711D811D911D42E0660F771F881F9D
:10044000991F4A95D1F708958F929F92AF92BF92CC
:10045000CF92DF92EF92FF920E94FF014B015C016D
:100460008AE0C82ED12CE12CF12C0E94FF016819E2
:1004700079098A099B09683E734081059105A8F3B3
:1004800021E0C21AD108E108F10888EE880E83E065
:10049000981EA11CB11CC114D104E104F10429F778
:1004A000FF90EF90DF90CF90BF90AF909F908F9094
:1004B00008950F931F93CF93DF93082F162FD42FF8
:1004C000C8E06D2F6170802F0E94B301D69561E066
:1004D000812F0E94B30160E0812F0E94B301C150BF
:1004E00081F7DF91CF911F910F91089560E085E032
:1004F0000E94B30143E063E086E00E94590261E09C
:1005000085E00C94B30160E085E00E94B30149E00E
:1005100063E086E00E94590261E085E00C94B3013B
:1005200060E085E00E94B30141E063E086E00E9464
:10053000590261E085E00C94B30160E085E00E941F
:10054000B3014FE163E086E00E94590261E085E07B
:100550000C94B30160E085E00E94B30141E463E0E4
:1005600086E00E94590261E085E00C94B30160E0EE
:1005700085E00E94B30149E463E086E00E945902ED
:1005800061E085E00C94B30160E085E00E94B30176
:1005900049E963E086E00E94590261E085E00C943D
:1005A000B30160E085E00E94B3014DE063E086E0C6
:1005B0000E94590261E085E00C94B30160E085E09F
:1005C0000E94B30145E263E086E00E94590261E0C7
:1005D00085E00C94B30160E085E00E94B3014FE92F
:1005E00063E086E00E94590261E085E00C94B3016B
:1005F0008F929F92AF92BF920F931F93CF93DF93EF
:10060000CDB7DEB7A1970FB6F894DEBF0FBECDBF52
:1006100019A2423008F44AE08E010F5D1F4F842E6C
:10062000912CB12CA12CA50194010E941406E62F57
:10063000B901CA01EA3044F5E05DD801EE938D01BD
:10064000232B242B252B79F790E080E0109769F07D
:10065000FD0101900020E9F73197AF014A1B5B0BC8
:10066000BD0189E291E00E94A600A1960FB6F89420
:10067000DEBF0FBECDBFDF91CF911F910F91BF9015
:10068000AF909F908F900895E95CD7CF1F920F9203
:100690000FB60F9211242F933F934F935F936F9355
:1006A0007F938F939F93AF93BF93EF93FF9389E2D1
:1006B00091E00E942401FF91EF91BF91AF919F9132
:1006C0008F917F916F915F914F913F912F910F90FB
:1006D0000FBE0F901F9018951F920F920FB60F929A
:1006E00011242F938F939F93EF93FF93E091390100
:1006F000F0913A018081E0913F01F091400182FD4B
:100700001BC09081809142018F5F8F7320914301C4
:10071000821741F0E0914201F0E0E75DFE4F958FD6
:1007200080934201FF91EF919F918F912F910F90B4
:100730000FBE0F901F9018958081F4CF1F920F92DB
:100740000FB60F9211242F933F938F939F93AF93E4
:10075000BF9380911B0190911C01A0911D01B0914C
:100760001E013091160123E0230F2D3758F5019615
:10077000A11DB11D2093160180931B0190931C01B4
:10078000A0931D01B0931E01809117019091180153
:10079000A0911901B0911A010196A11DB11D80937C
:1007A000170190931801A0931901B0931A01BF91FA
:1007B000AF919F918F913F912F910F900FBE0F900E
:1007C0001F90189526E8230F0296A11DB11DD2CFC8
:1007D000789484B5826084BD84B5816084BD85B51C
:1007E000826085BD85B5816085BD80916E00816028
:1007F00080936E00109281008091810082608093CE
:1008000081008091810081608093810080918000CF
:100810008160809380008091B10084608093B100FA
:100820008091B00081608093B00080917A008460F4
:1008300080937A0080917A00826080937A00809120
:100840007A00816080937A0080917A00806880933A
:100850007A001092C10086E00E94870085E00E9425
:10086000870083E00E9487008DE00E9487008CE073
:100870000E948700E0913901F0913A0182E0808383
:10088000E0913501F09136011082E0913701F0914D
:1008900038018FEC808310924101E0913D01F0918D
:1008A0003E0186E08083E0913B01F0913C01808134
:1008B00080618083E0913B01F0913C018081886000
:1008C0008083E0913B01F0913C01808180688083CE
:1008D000E0913B01F0913C0180818F7D80830AE0B3
:1008E00010E0C0E0D0E0AA24A394B12CC09027016E
:1008F000D090280184E6C816D10449F5B0922801A9
:10090000A092270180912701909128010196909350
:100910002801809327012FB7F89480911B019091B3
:100920001C01A0911D01B0911E012FBF80931F01DA
:1009300090932001A0932101B09322012097B1F25E
:100940000E941001882391F20E940000CFCFC601BF
:10095000B8010E94000670932601609325019093D0
:100960002401809323010D2C000CEE08FF084AE0BF
:10097000C701B601F7FE0DC06DE289E291E00E9469
:10098000460166277727CB016C197D098E099F09DF
:100990004AE00E94F80242E050E062E171E089E240
:1009A00091E00E94A60061E08DE00E94B30160E04A
:1009B0008CE00E94B301E0912501F0912601EA301C
:1009C000F10580F4EA51FB4F0C943606F004110552
:1009D000140517051A051D052005230526052905FB
:1009E0000E9476020E94240260E08DE00E94B30122
:1009F00061E08CE00E94B301E0912301F0912401B9
:100A0000EA30F10558F5E95FFA4F0C9436062C05EB
:100A10005205550558055B055E05610564056705CA
:100A20006A050E94EB02DECF0E94DE02DBCF0E944D
:100A3000D102D8CF0E94C402D5CF0E94B702D2CF34
:100A40000E94AA02CFCF0E949D02CCCF0E949002AA
:100A5000C9CF0E948302C6CF0E9476020E94240260
:100A60002FB7F89460911B0170911C0180911D01BA
:100A700090911E012FBFC0901F01D0902001E090E7
:100A80002101F09022016C197D098E099F090E94B5
:100A90009F0520E030E648E754E40E949A0587FD70
:100AA00082CF30CF0E94EB02D9CF0E94DE02D6CF98
:100AB0000E94D102D3CF0E94C402D0CF0E94B702BD
:100AC000CDCF0E94AA02CACF0E949D02C7CF0E942A
:100AD0009002C4CF0E948302C1CFE9E2F1E0138209
:100AE000128288EE93E0A0E0B0E084839583A68331
:100AF000B78384E091E09183808385EC90E09587D3
:100B0000848784EC90E09787868780EC90E0918BD7
:100B1000808B81EC90E0938B828B82EC90E0958BC4
:100B2000848B86EC90E0978B868B118E128E138EC1
:100B3000148E08950E94DC0508F481E00895E8947D
:100B400009C097FB3EF490958095709561957F4F15
:100B50008F4F9F4F9923A9F0F92F96E9BB279395C3
:100B6000F695879577956795B795F111F8CFFAF4D3
:100B7000BB0F11F460FF1BC06F5F7F4F8F4F9F4F04
:100B800016C0882311F096E911C0772321F09EE862
:100B9000872F762F05C0662371F096E8862F70E0C8
:100BA00060E02AF09A95660F771F881FDAF7880FA2
:100BB0009695879597F90895990F0008550FAA0BF8
:100BC000E0E8FEEF16161706E807F907C0F0121660
:100BD0001306E407F50798F0621B730B840B950B63
:100BE00039F40A2661F0232B242B252B21F40895B8
:100BF0000A2609F4A140A6958FEF811D811D089555
:100C000097FB072E16F4009407D077FD09D00E94B9
:100C10003C0607FC05D03EF4909581959F4F0895C2
:100C2000709561957F4F0895A1E21A2EAA1BBB1BF8
:100C3000FD010DC0AA1FBB1FEE1FFF1FA217B307A8
:100C4000E407F50720F0A21BB30BE40BF50B661FBE
:100C5000771F881F991F1A9469F760957095809582
:100C600090959B01AC01BD01CF010895EE0FFF1FD0
:100C70000590F491E02D0994AA1BBB1B51E107C01C
:100C8000AA1FBB1FA617B70710F0A61BB70B881F1C
:100C9000991F5A95A9F780959095BC01CD010895AB
:040CA000F894FFCFF6
:100CA400000000004601A600D30093010401E20005
:060CB400F6000D0A00002D
:107E0000112484B714BE81FFF0D085E080938100F7
:107E100082E08093C00088E18093C10086E0809377
:107E2000C20080E18093C4008EE0C9D0259A86E02C
:107E300020E33CEF91E0309385002093840096BBD3
:107E4000B09BFECF1D9AA8958150A9F7CC24DD24C4
:107E500088248394B5E0AB2EA1E19A2EF3E0BF2EE7
:107E6000A2D0813461F49FD0082FAFD0023811F036
:107E7000013811F484E001C083E08DD089C08234E0
:107E800011F484E103C0853419F485E0A6D080C0E4
:107E9000853579F488D0E82EFF2485D0082F10E0AE
:107EA000102F00270E291F29000F111F8ED06801E7
:107EB0006FC0863521F484E090D080E0DECF843638
:107EC00009F040C070D06FD0082F6DD080E0C81688
:107ED00080E7D80618F4F601B7BEE895C0E0D1E017
:107EE00062D089930C17E1F7F0E0CF16F0E7DF06D8
:107EF00018F0F601B7BEE89568D007B600FCFDCFD4
:107F0000A601A0E0B1E02C9130E011968C91119780
:107F100090E0982F8827822B932B1296FA010C0160
:107F200087BEE89511244E5F5F4FF1E0A038BF0790
:107F300051F7F601A7BEE89507B600FCFDCF97BE46
:107F4000E89526C08437B1F42ED02DD0F82E2BD052
:107F50003CD0F601EF2C8F010F5F1F4F84911BD097
:107F6000EA94F801C1F70894C11CD11CFA94CF0C13
:107F7000D11C0EC0853739F428D08EE10CD085E9AC
:107F80000AD08FE07ACF813511F488E018D01DD067
:107F900080E101D065CF982F8091C00085FFFCCF94
:107FA0009093C60008958091C00087FFFCCF809118
:107FB000C00084FD01C0A8958091C6000895E0E648
:107FC000F0E098E1908380830895EDDF803219F02E
:107FD00088E0F5DFFFCF84E1DECF1F93182FE3DFCA
:107FE0001150E9F7F2DF1F91089580E0E8DFEE27F6
:047FF000FF270994CA
:027FFE00040479
:0400000300007E007B
:00000001FF
